{
  "contractName": "Beth",
  "abi": [
    {
      "inputs": [
        {
          "internalType": "uint8",
          "name": "betCreatorFee",
          "type": "uint8"
        },
        {
          "internalType": "uint8",
          "name": "devFee",
          "type": "uint8"
        },
        {
          "internalType": "uint8",
          "name": "txFee",
          "type": "uint8"
        }
      ],
      "stateMutability": "payable",
      "type": "constructor"
    },
    {
      "anonymous": false,
      "inputs": [
        {
          "indexed": false,
          "internalType": "uint256",
          "name": "executionTime",
          "type": "uint256"
        }
      ],
      "name": "PayoutDelayed",
      "type": "event"
    },
    {
      "anonymous": false,
      "inputs": [],
      "name": "PayoutExecuted",
      "type": "event"
    },
    {
      "anonymous": false,
      "inputs": [
        {
          "indexed": false,
          "internalType": "uint256",
          "name": "betId",
          "type": "uint256"
        },
        {
          "indexed": false,
          "internalType": "bool",
          "name": "betSide",
          "type": "bool"
        },
        {
          "indexed": false,
          "internalType": "address",
          "name": "bettorAddress",
          "type": "address"
        },
        {
          "indexed": false,
          "internalType": "uint256",
          "name": "betValue",
          "type": "uint256"
        }
      ],
      "name": "betPlaced",
      "type": "event"
    },
    {
      "inputs": [],
      "name": "numBets",
      "outputs": [
        {
          "internalType": "uint256",
          "name": "",
          "type": "uint256"
        }
      ],
      "stateMutability": "view",
      "type": "function"
    },
    {
      "inputs": [],
      "name": "numGroups",
      "outputs": [
        {
          "internalType": "uint256",
          "name": "",
          "type": "uint256"
        }
      ],
      "stateMutability": "view",
      "type": "function"
    },
    {
      "inputs": [
        {
          "internalType": "string",
          "name": "betName",
          "type": "string"
        },
        {
          "internalType": "string",
          "name": "side1Description",
          "type": "string"
        },
        {
          "internalType": "string",
          "name": "side2Description",
          "type": "string"
        },
        {
          "internalType": "uint256",
          "name": "minBet",
          "type": "uint256"
        },
        {
          "internalType": "uint256",
          "name": "openingDate",
          "type": "uint256"
        },
        {
          "internalType": "uint256",
          "name": "closingDate",
          "type": "uint256"
        },
        {
          "internalType": "uint256",
          "name": "groupId",
          "type": "uint256"
        }
      ],
      "name": "createBet",
      "outputs": [
        {
          "internalType": "uint256",
          "name": "",
          "type": "uint256"
        }
      ],
      "stateMutability": "nonpayable",
      "type": "function"
    },
    {
      "inputs": [
        {
          "internalType": "uint256",
          "name": "betId",
          "type": "uint256"
        },
        {
          "internalType": "bool",
          "name": "betSide",
          "type": "bool"
        }
      ],
      "name": "placeBet",
      "outputs": [],
      "stateMutability": "payable",
      "type": "function"
    },
    {
      "inputs": [
        {
          "internalType": "uint256",
          "name": "betId",
          "type": "uint256"
        }
      ],
      "name": "viewBetName",
      "outputs": [
        {
          "internalType": "string",
          "name": "",
          "type": "string"
        }
      ],
      "stateMutability": "view",
      "type": "function"
    },
    {
      "inputs": [
        {
          "internalType": "uint256",
          "name": "betId",
          "type": "uint256"
        }
      ],
      "name": "viewBetSide1Name",
      "outputs": [
        {
          "internalType": "string",
          "name": "",
          "type": "string"
        }
      ],
      "stateMutability": "view",
      "type": "function"
    },
    {
      "inputs": [
        {
          "internalType": "uint256",
          "name": "betId",
          "type": "uint256"
        }
      ],
      "name": "viewBetSide2Name",
      "outputs": [
        {
          "internalType": "string",
          "name": "",
          "type": "string"
        }
      ],
      "stateMutability": "view",
      "type": "function"
    },
    {
      "inputs": [
        {
          "internalType": "uint256",
          "name": "betId",
          "type": "uint256"
        }
      ],
      "name": "viewBetOpeningDate",
      "outputs": [
        {
          "internalType": "uint256",
          "name": "",
          "type": "uint256"
        }
      ],
      "stateMutability": "view",
      "type": "function"
    },
    {
      "inputs": [
        {
          "internalType": "uint256",
          "name": "betId",
          "type": "uint256"
        }
      ],
      "name": "viewBetClosingDate",
      "outputs": [
        {
          "internalType": "uint256",
          "name": "",
          "type": "uint256"
        }
      ],
      "stateMutability": "view",
      "type": "function"
    },
    {
      "inputs": [
        {
          "internalType": "uint256",
          "name": "betId",
          "type": "uint256"
        }
      ],
      "name": "viewBetResult",
      "outputs": [
        {
          "internalType": "bool",
          "name": "",
          "type": "bool"
        }
      ],
      "stateMutability": "view",
      "type": "function"
    },
    {
      "inputs": [
        {
          "internalType": "uint256",
          "name": "betId",
          "type": "uint256"
        }
      ],
      "name": "viewCompletionStatus",
      "outputs": [
        {
          "internalType": "bool",
          "name": "",
          "type": "bool"
        }
      ],
      "stateMutability": "view",
      "type": "function"
    },
    {
      "inputs": [
        {
          "internalType": "uint256",
          "name": "betId",
          "type": "uint256"
        }
      ],
      "name": "viewCurrentOdds",
      "outputs": [
        {
          "internalType": "int128",
          "name": "",
          "type": "int128"
        }
      ],
      "stateMutability": "view",
      "type": "function"
    },
    {
      "inputs": [
        {
          "internalType": "address[]",
          "name": "arr",
          "type": "address[]"
        }
      ],
      "name": "createGroup",
      "outputs": [
        {
          "internalType": "uint256",
          "name": "",
          "type": "uint256"
        }
      ],
      "stateMutability": "nonpayable",
      "type": "function"
    },
    {
      "inputs": [
        {
          "internalType": "uint256",
          "name": "groupId",
          "type": "uint256"
        }
      ],
      "name": "viewGroup",
      "outputs": [
        {
          "internalType": "address[]",
          "name": "",
          "type": "address[]"
        }
      ],
      "stateMutability": "view",
      "type": "function"
    },
    {
      "inputs": [
        {
          "internalType": "uint256",
          "name": "betId",
          "type": "uint256"
        },
        {
          "internalType": "bool",
          "name": "result",
          "type": "bool"
        }
      ],
      "name": "executePayout",
      "outputs": [],
      "stateMutability": "nonpayable",
      "type": "function"
    },
    {
      "inputs": [
        {
          "internalType": "uint256",
          "name": "betId",
          "type": "uint256"
        }
      ],
      "name": "payout",
      "outputs": [],
      "stateMutability": "nonpayable",
      "type": "function"
    },
    {
      "inputs": [
        {
          "internalType": "uint256",
          "name": "betId",
          "type": "uint256"
        }
      ],
      "name": "changeResult",
      "outputs": [
        {
          "internalType": "bool",
          "name": "",
          "type": "bool"
        }
      ],
      "stateMutability": "nonpayable",
      "type": "function"
    },
    {
      "inputs": [],
      "name": "getCurrentTimestamp",
      "outputs": [
        {
          "internalType": "uint256",
          "name": "",
          "type": "uint256"
        }
      ],
      "stateMutability": "view",
      "type": "function"
    },
    {
      "inputs": [],
      "name": "checkGasPrice",
      "outputs": [
        {
          "internalType": "uint256",
          "name": "",
          "type": "uint256"
        }
      ],
      "stateMutability": "view",
      "type": "function"
    }
  ],
  "bytecode": "0x60806040526000600155600060035560405162002e6f38038062002e6f8339818101604052810190620000339190620000e4565b826000806101000a81548160ff021916908360ff16021790555081600060016101000a81548160ff021916908360ff16021790555080600060026101000a81548160ff021916908360ff16021790555033600060036101000a81548173ffffffffffffffffffffffffffffffffffffffff021916908373ffffffffffffffffffffffffffffffffffffffff16021790555050505062000161565b600081519050620000de8162000147565b92915050565b600080600060608486031215620000fa57600080fd5b60006200010a86828701620000cd565b93505060206200011d86828701620000cd565b92505060406200013086828701620000cd565b9150509250925092565b600060ff82169050919050565b62000152816200013a565b81146200015e57600080fd5b50565b612cfe80620001716000396000f3fe6080604052600436106101145760003560e01c8063928ab6ca116100a0578063b31a2e2611610064578063b31a2e2614610416578063bd5f148914610453578063d728f5b714610490578063df06f906146104bb578063e1152343146104e657610114565b8063928ab6ca146103065780639ed9c74d14610343578063a490f2951461035f578063a686fc001461039c578063a7c4f6b8146103d957610114565b80636c9230db116100e75780636c9230db1461020d5780637193ac121461023857806383324e8c1461026157806387c129da1461028c5780638912d114146102c957610114565b806335b58aa51461011957806339eb0df414610156578063436a1219146101935780636032c464146101d0575b600080fd5b34801561012557600080fd5b50610140600480360381019061013b9190612169565b61050f565b60405161014d919061268f565b60405180910390f35b34801561016257600080fd5b5061017d60048036038101906101789190612169565b610576565b60405161018a9190612674565b60405180910390f35b34801561019f57600080fd5b506101ba60048036038101906101b59190612169565b6105a3565b6040516101c7919061280c565b60405180910390f35b3480156101dc57600080fd5b506101f760048036038101906101f29190612169565b6105c3565b60405161020491906126aa565b60405180910390f35b34801561021957600080fd5b5061022261066b565b60405161022f919061280c565b60405180910390f35b34801561024457600080fd5b5061025f600480360381019061025a9190612192565b610673565b005b34801561026d57600080fd5b50610276610860565b604051610283919061280c565b60405180910390f35b34801561029857600080fd5b506102b360048036038101906102ae9190612169565b610866565b6040516102c091906126aa565b60405180910390f35b3480156102d557600080fd5b506102f060048036038101906102eb9190612083565b61090e565b6040516102fd919061280c565b60405180910390f35b34801561031257600080fd5b5061032d60048036038101906103289190612169565b610adf565b60405161033a91906126aa565b60405180910390f35b61035d60048036038101906103589190612192565b610b87565b005b34801561036b57600080fd5b5061038660048036038101906103819190612169565b6110f8565b6040516103939190612652565b60405180910390f35b3480156103a857600080fd5b506103c360048036038101906103be9190612169565b61119f565b6040516103d09190612674565b60405180910390f35b3480156103e557600080fd5b5061040060048036038101906103fb9190612169565b6111cc565b60405161040d9190612674565b60405180910390f35b34801561042257600080fd5b5061043d60048036038101906104389190612169565b6113a1565b60405161044a919061280c565b60405180910390f35b34801561045f57600080fd5b5061047a60048036038101906104759190612042565b6113c1565b604051610487919061280c565b60405180910390f35b34801561049c57600080fd5b506104a5611413565b6040516104b2919061280c565b60405180910390f35b3480156104c757600080fd5b506104d061141b565b6040516104dd919061280c565b60405180910390f35b3480156104f257600080fd5b5061050d60048036038101906105089190612169565b611421565b005b60008060026000848152602001908152602001600020600b015414156105385760009050610571565b61056e60026000848152602001908152602001600020600a015460026000858152602001908152602001600020600b0154611b22565b90505b919050565b60006002600083815260200190815260200160002060090160009054906101000a900460ff169050919050565b600060026000838152602001908152602001600020600701549050919050565b60606002600083815260200190815260200160002060010180546105e690612b3b565b80601f016020809104026020016040519081016040528092919081815260200182805461061290612b3b565b801561065f5780601f106106345761010080835404028352916020019161065f565b820191906000526020600020905b81548152906001019060200180831161064257829003601f168201915b50505050509050919050565b600042905090565b600060039054906101000a900473ffffffffffffffffffffffffffffffffffffffff1673ffffffffffffffffffffffffffffffffffffffff163373ffffffffffffffffffffffffffffffffffffffff1614610703576040517f08c379a00000000000000000000000000000000000000000000000000000000081526004016106fa9061278c565b60405180910390fd5b8160006002600083815260200190815260200160002060060154141561075e576040517f08c379a0000000000000000000000000000000000000000000000000000000008152600401610755906126ec565b60405180910390fd5b60026000848152602001908152602001600020600701544210156107b7576040517f08c379a00000000000000000000000000000000000000000000000000000000081526004016107ae906126cc565b60405180910390fd5b816002600085815260200190815260200160002060090160016101000a81548160ff02191690831515021790555062015180426107f4919061294e565b60026000858152602001908152602001600020600801819055507fd29af1cab046e5d53b7541cf330e78deb15d45f42f44712512586748e96b11066002600085815260200190815260200160002060080154604051610853919061280c565b60405180910390a1505050565b60035481565b606060026000838152602001908152602001600020600001805461088990612b3b565b80601f01602080910402602001604051908101604052809291908181526020018280546108b590612b3b565b80156109025780601f106108d757610100808354040283529160200191610902565b820191906000526020600020905b8154815290600101906020018083116108e557829003601f168201915b50505050509050919050565b6000816000811461097457600060046000838152602001908152602001600020805490501415610973576040517f08c379a000000000000000000000000000000000000000000000000000000000815260040161096a9061276c565b60405180910390fd5b5b60006001600081548092919061098990612b6d565b91905055905060006002600083815260200190815260200160002090508a8160000190805190602001906109be929190611dd8565b50898160010190805190602001906109d7929190611dd8565b50888160020190805190602001906109f0929190611dd8565b508781600301819055508681600601819055508581600701819055506000816008018190555084816005018190555060008160090160006101000a81548160ff02191690831515021790555060008160090160016101000a81548160ff021916908315150217905550338160040160006101000a81548173ffffffffffffffffffffffffffffffffffffffff021916908373ffffffffffffffffffffffffffffffffffffffff16021790555060008160040160146101000a81548160ff021916908360ff160217905550600081600a0181905550600081600b0181905550819350505050979650505050505050565b6060600260008381526020019081526020016000206002018054610b0290612b3b565b80601f0160208091040260200160405190810160405280929190818152602001828054610b2e90612b3b565b8015610b7b5780601f10610b5057610100808354040283529160200191610b7b565b820191906000526020600020905b815481529060010190602001808311610b5e57829003601f168201915b50505050509050919050565b81600060026000838152602001908152602001600020600601541415610be2576040517f08c379a0000000000000000000000000000000000000000000000000000000008152600401610bd9906126ec565b60405180910390fd5b60026000848152602001908152602001600020600501548333600080841415610c0e5760019050610d45565b600060046000868152602001908152602001600020805480602002602001604051908101604052809291908181526020018280548015610ca357602002820191906000526020600020905b8160009054906101000a900473ffffffffffffffffffffffffffffffffffffffff1673ffffffffffffffffffffffffffffffffffffffff1681526020019060010190808311610c59575b5050505050905060005b8151811015610d4257818181518110610cef577f4e487b7100000000000000000000000000000000000000000000000000000000600052603260045260246000fd5b602002602001015173ffffffffffffffffffffffffffffffffffffffff168473ffffffffffffffffffffffffffffffffffffffff161415610d2f57600192505b8080610d3a90612b6d565b915050610cad565b50505b6001151581151514610d8c576040517f08c379a0000000000000000000000000000000000000000000000000000000008152600401610d839061274c565b60405180910390fd5b6002600088815260200190815260200160002060030154341015610de5576040517f08c379a0000000000000000000000000000000000000000000000000000000008152600401610ddc9061270c565b60405180910390fd5b60026000888152602001908152602001600020600601544210158015610e21575060026000888152602001908152602001600020600701544211155b610e60576040517f08c379a0000000000000000000000000000000000000000000000000000000008152600401610e57906127ac565b60405180910390fd5b8515610f8e57600060026000898152602001908152602001600020600a015490503481610e8d919061294e565b600260008a8152602001908152602001600020600a018190555060026000898152602001908152602001600020600c01339080600181540180825580915050600190039060005260206000200160009091909190916101000a81548173ffffffffffffffffffffffffffffffffffffffff021916908373ffffffffffffffffffffffffffffffffffffffff16021790555034600260008a8152602001908152602001600020600e0160003373ffffffffffffffffffffffffffffffffffffffff1673ffffffffffffffffffffffffffffffffffffffff1681526020019081526020016000206000828254610f81919061294e565b92505081905550506110b2565b600060026000898152602001908152602001600020600b015490503481610fb5919061294e565b600260008a8152602001908152602001600020600b018190555060026000898152602001908152602001600020600d01339080600181540180825580915050600190039060005260206000200160009091909190916101000a81548173ffffffffffffffffffffffffffffffffffffffff021916908373ffffffffffffffffffffffffffffffffffffffff16021790555034600260008a8152602001908152602001600020600f0160003373ffffffffffffffffffffffffffffffffffffffff1673ffffffffffffffffffffffffffffffffffffffff16815260200190815260200160002060008282546110a9919061294e565b92505081905550505b7f813afc8cce2613455fa3c5daef3d44dda513f622ac0f9e57a4b0793cbd7ec531878733346040516110e79493929190612827565b60405180910390a150505050505050565b606060006004600084815260200190815260200160002080548060200260200160405190810160405280929190818152602001828054801561118f57602002820191906000526020600020905b8160009054906101000a900473ffffffffffffffffffffffffffffffffffffffff1673ffffffffffffffffffffffffffffffffffffffff1681526020019060010190808311611145575b5050505050905080915050919050565b60006002600083815260200190815260200160002060090160019054906101000a900460ff169050919050565b60008060039054906101000a900473ffffffffffffffffffffffffffffffffffffffff1673ffffffffffffffffffffffffffffffffffffffff163373ffffffffffffffffffffffffffffffffffffffff161461125d576040517f08c379a00000000000000000000000000000000000000000000000000000000081526004016112549061278c565b60405180910390fd5b816000600260008381526020019081526020016000206006015414156112b8576040517f08c379a00000000000000000000000000000000000000000000000000000000081526004016112af906126ec565b60405180910390fd5b600015156002600085815260200190815260200160002060090160009054906101000a900460ff16151514611322576040517f08c379a0000000000000000000000000000000000000000000000000000000008152600401611319906127cc565b60405180910390fd5b6002600084815260200190815260200160002060090160019054906101000a900460ff16156002600085815260200190815260200160002060090160016101000a81548160ff0219169083151502179055506002600084815260200190815260200160002060090160019054906101000a900460ff1615915050919050565b600060026000838152602001908152602001600020600601549050919050565b6000600360008154809291906113d690612b6d565b91905055506000600354905082600460008381526020019081526020016000209080519060200190611409929190611e5e565b5080915050919050565b60003a905090565b60015481565b600060039054906101000a900473ffffffffffffffffffffffffffffffffffffffff1673ffffffffffffffffffffffffffffffffffffffff163373ffffffffffffffffffffffffffffffffffffffff16146114b1576040517f08c379a00000000000000000000000000000000000000000000000000000000081526004016114a89061278c565b60405180910390fd5b60026000828152602001908152602001600020600801548042101561150b576040517f08c379a00000000000000000000000000000000000000000000000000000000081526004016115029061272c565b60405180910390fd5b600060026000848152602001908152602001600020600701541415611565576040517f08c379a000000000000000000000000000000000000000000000000000000000815260040161155c906127ec565b60405180910390fd5b60606002600084815260200190815260200160002060090160019054906101000a900460ff16156116325760026000848152602001908152602001600020600c0180548060200260200160405190810160405280929190818152602001828054801561162657602002820191906000526020600020905b8160009054906101000a900473ffffffffffffffffffffffffffffffffffffffff1673ffffffffffffffffffffffffffffffffffffffff16815260200190600101908083116115dc575b505050505090506116d0565b60026000848152602001908152602001600020600d018054806020026020016040519081016040528092919081815260200182805480156116c857602002820191906000526020600020905b8160009054906101000a900473ffffffffffffffffffffffffffffffffffffffff1673ffffffffffffffffffffffffffffffffffffffff168152602001906001019080831161167e575b505050505090505b600060026000858152602001908152602001600020600b015460026000868152602001908152602001600020600a015461170a919061294e565b905060006301c9c3803a61171e91906129d5565b9050600060028451611730919061294e565b8261173b91906129d5565b606484600060019054906101000a900460ff1660008054906101000a900460ff1660646117689190612a63565b6117729190612a63565b60ff1661177f91906129d5565b61178991906129a4565b6117939190612a2f565b905060006002600088815260200190815260200160002060040160009054906101000a900473ffffffffffffffffffffffffffffffffffffffff169050600060648560008054906101000a900460ff1660ff166117f091906129d5565b6117fa91906129a4565b90508173ffffffffffffffffffffffffffffffffffffffff166108fc829081150290604051600060405180830381858888f19350505050158015611842573d6000803e3d6000fd5b5060008060039054906101000a900473ffffffffffffffffffffffffffffffffffffffff1690508073ffffffffffffffffffffffffffffffffffffffff166108fc606488600060019054906101000a900460ff1660ff166118a391906129d5565b6118ad91906129a4565b9081150290604051600060405180830381858888f193505050501580156118d8573d6000803e3d6000fd5b5060005b8751811015611abb576000888281518110611920577f4e487b7100000000000000000000000000000000000000000000000000000000600052603260045260246000fd5b602002602001015190506000600260008d815260200190815260200160002060090160019054906101000a900460ff16156119dc57600260008d8152602001908152602001600020600a015487600260008f8152602001908152602001600020600e0160008573ffffffffffffffffffffffffffffffffffffffff1673ffffffffffffffffffffffffffffffffffffffff168152602001908152602001600020546119cb91906129d5565b6119d591906129a4565b9050611a5f565b600260008d8152602001908152602001600020600b015487600260008f8152602001908152602001600020600f0160008573ffffffffffffffffffffffffffffffffffffffff1673ffffffffffffffffffffffffffffffffffffffff16815260200190815260200160002054611a5291906129d5565b611a5c91906129a4565b90505b8173ffffffffffffffffffffffffffffffffffffffff166108fc829081150290604051600060405180830381858888f19350505050158015611aa5573d6000803e3d6000fd5b5050508080611ab390612b6d565b9150506118dc565b506001600260008b815260200190815260200160002060090160006101000a81548160ff0219169083151502179055507f56dfc206ce78ad5b5f119dede3cb3769e1d1684418d50dc9a13da107be0b58f260405160405180910390a1505050505050505050565b600080821415611b3157600080fd5b6000611b3d8484611b8a565b90506f7fffffffffffffffffffffffffffffff6fffffffffffffffffffffffffffffffff16816fffffffffffffffffffffffffffffffff161115611b8057600080fd5b8091505092915050565b600080821415611b9957600080fd5b600077ffffffffffffffffffffffffffffffffffffffffffffffff8411611bfc5782604085901b81611bf4577f4e487b7100000000000000000000000000000000000000000000000000000000600052601260045260246000fd5b049050611db1565b600060c09050600060c086901c90506401000000008110611c2557602081901c90506020820191505b620100008110611c3d57601081901c90506010820191505b6101008110611c5457600881901c90506008820191505b60108110611c6a57600481901c90506004820191505b60048110611c8057600281901c90506002820191505b60028110611c8f576001820191505b600160bf830360018703901c018260ff0387901b81611cd7577f4e487b7100000000000000000000000000000000000000000000000000000000600052601260045260246000fd5b0492506fffffffffffffffffffffffffffffffff831115611cf757600080fd5b6000608086901c8402905060006fffffffffffffffffffffffffffffffff871685029050600060c089901c9050600060408a901b905082811015611d3c576001820391505b8281039050608084901b925082811015611d57576001820391505b8281039050608084901c8214611d6e576001611da6565b888181611da4577f4e487b7100000000000000000000000000000000000000000000000000000000600052601260045260246000fd5b045b870196505050505050505b6fffffffffffffffffffffffffffffffff811115611dce57600080fd5b8091505092915050565b828054611de490612b3b565b90600052602060002090601f016020900481019282611e065760008555611e4d565b82601f10611e1f57805160ff1916838001178555611e4d565b82800160010185558215611e4d579182015b82811115611e4c578251825591602001919060010190611e31565b5b509050611e5a9190611ee8565b5090565b828054828255906000526020600020908101928215611ed7579160200282015b82811115611ed65782518260006101000a81548173ffffffffffffffffffffffffffffffffffffffff021916908373ffffffffffffffffffffffffffffffffffffffff16021790555091602001919060010190611e7e565b5b509050611ee49190611ee8565b5090565b5b80821115611f01576000816000905550600101611ee9565b5090565b6000611f18611f138461289d565b61286c565b90508083825260208201905082856020860282011115611f3757600080fd5b60005b85811015611f675781611f4d8882611faf565b845260208401935060208301925050600181019050611f3a565b5050509392505050565b6000611f84611f7f846128c9565b61286c565b905082815260208101848484011115611f9c57600080fd5b611fa7848285612af9565b509392505050565b600081359050611fbe81612c83565b92915050565b600082601f830112611fd557600080fd5b8135611fe5848260208601611f05565b91505092915050565b600081359050611ffd81612c9a565b92915050565b600082601f83011261201457600080fd5b8135612024848260208601611f71565b91505092915050565b60008135905061203c81612cb1565b92915050565b60006020828403121561205457600080fd5b600082013567ffffffffffffffff81111561206e57600080fd5b61207a84828501611fc4565b91505092915050565b600080600080600080600060e0888a03121561209e57600080fd5b600088013567ffffffffffffffff8111156120b857600080fd5b6120c48a828b01612003565b975050602088013567ffffffffffffffff8111156120e157600080fd5b6120ed8a828b01612003565b965050604088013567ffffffffffffffff81111561210a57600080fd5b6121168a828b01612003565b95505060606121278a828b0161202d565b94505060806121388a828b0161202d565b93505060a06121498a828b0161202d565b92505060c061215a8a828b0161202d565b91505092959891949750929550565b60006020828403121561217b57600080fd5b60006121898482850161202d565b91505092915050565b600080604083850312156121a557600080fd5b60006121b38582860161202d565b92505060206121c485828601611fee565b9150509250929050565b60006121da83836121e6565b60208301905092915050565b6121ef81612a97565b82525050565b6121fe81612a97565b82525050565b600061220f82612909565b612219818561292c565b9350612224836128f9565b8060005b8381101561225557815161223c88826121ce565b97506122478361291f565b925050600181019050612228565b5085935050505092915050565b61226b81612aa9565b82525050565b61227a81612ab5565b82525050565b600061228b82612914565b612295818561293d565b93506122a5818560208601612b08565b6122ae81612c72565b840191505092915050565b60006122c6602e8361293d565b91507f5061796f75742063616e206f6e6c79206265206578656375746564206166746560008301527f7220636c6f73696e6720646174650000000000000000000000000000000000006020830152604082019050919050565b600061232c60108361293d565b91507f426574496420697320696e76616c6964000000000000000000000000000000006000830152602082019050919050565b600061236c60238361293d565b91507f42657420616d6f756e74206973206c657373207468616e206d696e696d756d2060008301527f62657400000000000000000000000000000000000000000000000000000000006020830152604082019050919050565b60006123d260288361293d565b91507f5061796f75742063616e206f6e6c792062652063616c6c65642061667465722060008301527f323420686f7572730000000000000000000000000000000000000000000000006020830152604082019050919050565b600061243860318361293d565b91507f43616c6c6572206973206e6f7420617070726f76656420746f20706c6163652060008301527f62657420696e20746869732067726f75700000000000000000000000000000006020830152604082019050919050565b600061249e60128361293d565b91507f47726f7570496420697320696e76616c696400000000000000000000000000006000830152602082019050919050565b60006124de60278361293d565b91507f4f6e6c7920616e2061646d696e2063616e20657865637574652074686973206660008301527f756e6374696f6e000000000000000000000000000000000000000000000000006020830152604082019050919050565b600061254460238361293d565b91507f426574206e6f7420706c616365642077697468696e2062657474696e6720646160008301527f74657300000000000000000000000000000000000000000000000000000000006020830152604082019050919050565b60006125aa601d8361293d565b91507f4265742068617320616c7265616479206265656e2070616964206f75740000006000830152602082019050919050565b60006125ea60348361293d565b91507f41646d696e20686173206e6f742073657420726573756c74732c20736f20706160008301527f796f75742064617465206973206e6f74207365740000000000000000000000006020830152604082019050919050565b61264c81612ae2565b82525050565b6000602082019050818103600083015261266c8184612204565b905092915050565b60006020820190506126896000830184612262565b92915050565b60006020820190506126a46000830184612271565b92915050565b600060208201905081810360008301526126c48184612280565b905092915050565b600060208201905081810360008301526126e5816122b9565b9050919050565b600060208201905081810360008301526127058161231f565b9050919050565b600060208201905081810360008301526127258161235f565b9050919050565b60006020820190508181036000830152612745816123c5565b9050919050565b600060208201905081810360008301526127658161242b565b9050919050565b6000602082019050818103600083015261278581612491565b9050919050565b600060208201905081810360008301526127a5816124d1565b9050919050565b600060208201905081810360008301526127c581612537565b9050919050565b600060208201905081810360008301526127e58161259d565b9050919050565b60006020820190508181036000830152612805816125dd565b9050919050565b60006020820190506128216000830184612643565b92915050565b600060808201905061283c6000830187612643565b6128496020830186612262565b61285660408301856121f5565b6128636060830184612643565b95945050505050565b6000604051905081810181811067ffffffffffffffff8211171561289357612892612c43565b5b8060405250919050565b600067ffffffffffffffff8211156128b8576128b7612c43565b5b602082029050602081019050919050565b600067ffffffffffffffff8211156128e4576128e3612c43565b5b601f19601f8301169050602081019050919050565b6000819050602082019050919050565b600081519050919050565b600081519050919050565b6000602082019050919050565b600082825260208201905092915050565b600082825260208201905092915050565b600061295982612ae2565b915061296483612ae2565b9250827fffffffffffffffffffffffffffffffffffffffffffffffffffffffffffffffff0382111561299957612998612bb6565b5b828201905092915050565b60006129af82612ae2565b91506129ba83612ae2565b9250826129ca576129c9612be5565b5b828204905092915050565b60006129e082612ae2565b91506129eb83612ae2565b9250817fffffffffffffffffffffffffffffffffffffffffffffffffffffffffffffffff0483118215151615612a2457612a23612bb6565b5b828202905092915050565b6000612a3a82612ae2565b9150612a4583612ae2565b925082821015612a5857612a57612bb6565b5b828203905092915050565b6000612a6e82612aec565b9150612a7983612aec565b925082821015612a8c57612a8b612bb6565b5b828203905092915050565b6000612aa282612ac2565b9050919050565b60008115159050919050565b600081600f0b9050919050565b600073ffffffffffffffffffffffffffffffffffffffff82169050919050565b6000819050919050565b600060ff82169050919050565b82818337600083830152505050565b60005b83811015612b26578082015181840152602081019050612b0b565b83811115612b35576000848401525b50505050565b60006002820490506001821680612b5357607f821691505b60208210811415612b6757612b66612c14565b5b50919050565b6000612b7882612ae2565b91507fffffffffffffffffffffffffffffffffffffffffffffffffffffffffffffffff821415612bab57612baa612bb6565b5b600182019050919050565b7f4e487b7100000000000000000000000000000000000000000000000000000000600052601160045260246000fd5b7f4e487b7100000000000000000000000000000000000000000000000000000000600052601260045260246000fd5b7f4e487b7100000000000000000000000000000000000000000000000000000000600052602260045260246000fd5b7f4e487b7100000000000000000000000000000000000000000000000000000000600052604160045260246000fd5b6000601f19601f8301169050919050565b612c8c81612a97565b8114612c9757600080fd5b50565b612ca381612aa9565b8114612cae57600080fd5b50565b612cba81612ae2565b8114612cc557600080fd5b5056fea264697066735822122016b9a629587c25496a8a271394777f8382acc281b3146ad1f1ede206b7c5b5ac64736f6c63430008000033",
  "immutableReferences": {},
  "source": "pragma solidity ^0.8.0;\nimport \"./ABDKMath64x64.sol\";\n\ncontract Beth {\n    uint8 commissionFeeBetCreator;\n    uint8 commissionFeeDev;\n    uint8 transactionFee;\n    address admin;\n\n    constructor(uint8 betCreatorFee, uint8 devFee, uint8 txFee) public payable {\n        commissionFeeBetCreator = betCreatorFee;\n        commissionFeeDev = devFee;\n        transactionFee = txFee;\n        admin = msg.sender;\n    }\n\n    struct bet {\n        string betName;\n        string side1Description;\n        string side2Description;\n        uint256 minBet;\n        address betCreator;\n        uint8 currentParticipantsCount;\n        uint256 groupId;\n        uint256 openingDate;\n        uint256 closingDate;\n        uint256 payoutDate;\n        bool completed;\n        bool result;\n        uint256 stakeSide1Bet;\n        uint256 stakeSide2Bet;\n        address[] side1BetsAddress;\n        address[] side2BetsAddress;\n        mapping(address => uint256) side1Bets;\n        mapping(address => uint256) side2Bets;\n    }\n\n    uint256 public numBets = 0;\n    mapping(uint256 => bet) bets;\n    uint256 public numGroups = 0;\n    mapping(uint256 => address[]) groups;\n    uint256 constant DELAY = 1440 minutes; // 24 hours\n    uint256 constant averageGasLimit = 30000000;\n\n    event betPlaced(\n        uint256 betId,\n        bool betSide,\n        address bettorAddress,\n        uint256 betValue\n    );\n    event PayoutDelayed(uint256 executionTime);\n    event PayoutExecuted();\n\n    modifier adminOnly() {\n        require(msg.sender == admin, \"Only an admin can execute this function\");\n        _;\n    }\n\n    modifier approvedAddresses(\n        uint256 groupId,\n        uint256 betId,\n        address addr\n    ) {\n        bool check = false;\n\n        // check if bet group is public\n        if (groupId == 0) {\n            check = true;\n        } else {\n            // check if address is in approved list of addresses for private group\n            address[] memory arr = groups[groupId];\n            for (uint256 i = 0; i < arr.length; i++) {\n                if (addr == arr[i]) {\n                    check = true;\n                }\n            }\n        }\n\n        require(\n            check == true,\n            \"Caller is not approved to place bet in this group\"\n        );\n        _;\n    }\n\n    modifier onlyAfter(uint256 time) {\n        require(\n            block.timestamp >= time,\n            \"Payout can only be called after 24 hours\"\n        );\n        _;\n    }\n\n    modifier existingGroup(uint256 groupId) {\n        if (groupId != 0) {\n            require(groups[groupId].length != 0, \"GroupId is invalid\");\n        }\n        _;\n    }\n\n    modifier validBet(uint256 betId) {\n        require(bets[betId].openingDate != 0, \"BetId is invalid\");\n        _;\n    }\n\n    // Bet Functions\n    //function to create a new bet\n    function createBet(\n        string memory betName,\n        string memory side1Description,\n        string memory side2Description,\n        uint256 minBet,\n        uint256 openingDate,\n        uint256 closingDate,\n        uint256 groupId\n    ) public existingGroup(groupId) returns (uint256) {\n        //new bet object\n        uint256 newBetId = numBets++;\n        bet storage newBet = bets[newBetId];\n\n        //initialize relevant variables in new bet object\n        newBet.betName = betName;\n        newBet.side1Description = side1Description;\n        newBet.side2Description = side2Description;\n        newBet.minBet = minBet;\n        newBet.openingDate = openingDate;\n        newBet.closingDate = closingDate;\n        newBet.payoutDate = 0;\n        newBet.groupId = groupId;\n        newBet.completed = false;\n        newBet.result = false;\n        newBet.betCreator = msg.sender;\n        newBet.currentParticipantsCount = 0;\n        newBet.stakeSide1Bet = 0;\n        newBet.stakeSide2Bet = 0;\n\n        return newBetId;\n    }\n\n    //function to place bets\n    function placeBet(\n        uint256 betId,\n        bool betSide\n    )\n        public\n        payable\n        validBet(betId)\n        approvedAddresses(bets[betId].groupId, betId, msg.sender)\n    {\n        require(\n            msg.value >= bets[betId].minBet,\n            \"Bet amount is less than minimum bet\"\n        );\n        require(\n            block.timestamp >= bets[betId].openingDate &&\n                block.timestamp <= bets[betId].closingDate,\n            \"Bet not placed within betting dates\"\n        );\n\n        if (betSide) {\n            //update bet object and side 1 bet variables\n            uint256 curSide1Amt = bets[betId].stakeSide1Bet;\n            bets[betId].stakeSide1Bet = curSide1Amt + msg.value;\n            bets[betId].side1BetsAddress.push(msg.sender);\n            bets[betId].side1Bets[msg.sender] += msg.value;\n        } else {\n            //update bet object and side 2 bet variables\n            uint256 curSide2Amt = bets[betId].stakeSide2Bet;\n            bets[betId].stakeSide2Bet = curSide2Amt + msg.value;\n            bets[betId].side2BetsAddress.push(msg.sender);\n            bets[betId].side2Bets[msg.sender] += msg.value;\n        }\n        emit betPlaced(betId, betSide, msg.sender, msg.value);\n    }\n\n    // function to view bet name\n    function viewBetName(uint256 betId) public view returns (string memory) {\n        return bets[betId].betName;\n    }\n\n    // function to view bet side 1 name\n    function viewBetSide1Name(\n        uint256 betId\n    ) public view returns (string memory) {\n        return bets[betId].side1Description;\n    }\n\n    // function to view bet side 2 name\n    function viewBetSide2Name(\n        uint256 betId\n    ) public view returns (string memory) {\n        return bets[betId].side2Description;\n    }\n\n    // function to view bet opening date\n    function viewBetOpeningDate(uint256 betId) public view returns (uint256) {\n        return bets[betId].openingDate;\n    }\n\n    // function to view bet closing date\n    function viewBetClosingDate(uint256 betId) public view returns (uint256) {\n        return bets[betId].closingDate;\n    }\n\n    // function to view bet result\n    function viewBetResult(uint256 betId) public view returns (bool) {\n        return bets[betId].result;\n    }\n\n    // function to view completion status\n    function viewCompletionStatus(uint256 betId) public view returns (bool) {\n        return bets[betId].completed;\n    }\n\n    // function to view the current odds\n    function viewCurrentOdds(uint256 betId) public view returns (int128) {\n        // For the case when the denominator is 0\n        if (bets[betId].stakeSide2Bet == 0) {\n            return 0;\n        }\n        return\n            ABDKMath64x64.divu(\n                bets[betId].stakeSide1Bet,\n                bets[betId].stakeSide2Bet\n            );\n    }\n\n    // Group Functions\n    //function to create a group for private bets\n    function createGroup(address[] memory arr) public returns (uint256) {\n        numGroups++;\n        uint256 newGroupId = numGroups;\n        groups[newGroupId] = arr;\n        return newGroupId;\n    }\n\n    //function to view group for private bets\n    function viewGroup(uint256 groupId) public view returns (address[] memory) {\n        address[] memory arr = groups[groupId];\n        return arr;\n    }\n\n    // Admin Functions\n    // wrapper function for admin to pay betters with 24 hours delay\n    function executePayout(\n        uint256 betId,\n        bool result\n    ) public adminOnly validBet(betId) {\n        require(\n            block.timestamp >= bets[betId].closingDate,\n            \"Payout can only be executed after closing date\"\n        );\n        bets[betId].result = result;\n        bets[betId].payoutDate = block.timestamp + DELAY;\n        emit PayoutDelayed(bets[betId].payoutDate);\n    }\n\n    // function to payout betters\n    function payout(\n        uint256 betId\n    ) public adminOnly onlyAfter(bets[betId].payoutDate) {\n        require(\n            bets[betId].closingDate != 0,\n            \"Admin has not set results, so payout date is not set\"\n        );\n        address[] memory winnerLs;\n\n        if (bets[betId].result) {\n            winnerLs = bets[betId].side1BetsAddress;\n        } else {\n            winnerLs = bets[betId].side2BetsAddress;\n        }\n\n        uint256 totalPrizePool = bets[betId].stakeSide1Bet +\n            bets[betId].stakeSide2Bet;\n        uint256 txfee = tx.gasprice * averageGasLimit;\n        uint256 payoutWinners = (((100 -\n            commissionFeeBetCreator -\n            commissionFeeDev) * totalPrizePool) / 100) -\n            txfee *\n            (winnerLs.length + 2);\n\n        //Pay bet initiator\n        address payable betCreator = payable(bets[betId].betCreator);\n        uint256 betCreatorPayment = (commissionFeeBetCreator * totalPrizePool) /\n            100;\n        betCreator.transfer(betCreatorPayment);\n\n        // Pay developers\n        address payable dev = payable(admin);\n        dev.transfer((commissionFeeDev * totalPrizePool) / 100);\n\n        // Iterate through winners list to pay each winner depending on their stake\n        for (uint i = 0; i < winnerLs.length; i++) {\n            address payable recipient = payable(winnerLs[i]);\n            uint256 payoutPerPerson = 0;\n\n            if (bets[betId].result) {\n                payoutPerPerson =\n                    (bets[betId].side1Bets[recipient] * payoutWinners) /\n                    bets[betId].stakeSide1Bet;\n            } else {\n                payoutPerPerson =\n                    (bets[betId].side2Bets[recipient] * payoutWinners) /\n                    bets[betId].stakeSide2Bet;\n            }\n\n            recipient.transfer(payoutPerPerson);\n        }\n\n        // Change payout and completion status\n        bets[betId].completed = true;\n        emit PayoutExecuted();\n    }\n\n    // function for admin to edit result of the bet\n    function changeResult(\n        uint256 betId\n    ) public adminOnly validBet(betId) returns (bool) {\n        require(\n            bets[betId].completed == false,\n            \"Bet has already been paid out\"\n        );\n        bets[betId].result = !bets[betId].result;\n        return !bets[betId].result;\n    }\n\n    function getCurrentTimestamp() public view returns (uint256) {\n        return block.timestamp;\n    }\n\n    function checkGasPrice() public view returns (uint256) {\n        return tx.gasprice;\n    }\n}\n",
  "sourcePath": "/Users/tylerwang/code/4302-bETH/bETH/contracts/beth.sol",
  "compiler": {
    "name": "solc",
    "version": "0.8.0+commit.c7dfd78e.Emscripten.clang"
  },
  "schemaVersion": "3.4.16",
  "updatedAt": "2024-04-21T01:51:12.627Z",
  "devdoc": {
    "kind": "dev",
    "methods": {},
    "version": 1
  },
  "userdoc": {
    "kind": "user",
    "methods": {},
    "version": 1
  }
}