{
  "contractName": "Beth",
  "abi": [
    {
      "inputs": [
        {
          "internalType": "uint8",
          "name": "betCreatorFee",
          "type": "uint8"
        },
        {
          "internalType": "uint8",
          "name": "devFee",
          "type": "uint8"
        },
        {
          "internalType": "uint8",
          "name": "txFee",
          "type": "uint8"
        }
      ],
      "stateMutability": "payable",
      "type": "constructor"
    },
    {
      "anonymous": false,
      "inputs": [
        {
          "indexed": false,
          "internalType": "uint256",
          "name": "executionTime",
          "type": "uint256"
        }
      ],
      "name": "PayoutDelayed",
      "type": "event"
    },
    {
      "anonymous": false,
      "inputs": [],
      "name": "PayoutExecuted",
      "type": "event"
    },
    {
      "inputs": [],
      "name": "numBets",
      "outputs": [
        {
          "internalType": "uint256",
          "name": "",
          "type": "uint256"
        }
      ],
      "stateMutability": "view",
      "type": "function"
    },
    {
      "inputs": [],
      "name": "numGroups",
      "outputs": [
        {
          "internalType": "uint256",
          "name": "",
          "type": "uint256"
        }
      ],
      "stateMutability": "view",
      "type": "function"
    },
    {
      "inputs": [
        {
          "internalType": "string",
          "name": "betName",
          "type": "string"
        },
        {
          "internalType": "string",
          "name": "side1Description",
          "type": "string"
        },
        {
          "internalType": "string",
          "name": "side2Description",
          "type": "string"
        },
        {
          "internalType": "uint256",
          "name": "minBet",
          "type": "uint256"
        },
        {
          "internalType": "uint256",
          "name": "openingDate",
          "type": "uint256"
        },
        {
          "internalType": "uint256",
          "name": "closingDate",
          "type": "uint256"
        },
        {
          "internalType": "uint256",
          "name": "groupId",
          "type": "uint256"
        }
      ],
      "name": "createBet",
      "outputs": [
        {
          "internalType": "uint256",
          "name": "",
          "type": "uint256"
        }
      ],
      "stateMutability": "nonpayable",
      "type": "function"
    },
    {
      "inputs": [
        {
          "internalType": "uint256",
          "name": "betId",
          "type": "uint256"
        },
        {
          "internalType": "bool",
          "name": "betSide",
          "type": "bool"
        }
      ],
      "name": "placeBet",
      "outputs": [],
      "stateMutability": "payable",
      "type": "function"
    },
    {
      "inputs": [
        {
          "internalType": "uint256",
          "name": "betId",
          "type": "uint256"
        }
      ],
      "name": "viewBetName",
      "outputs": [
        {
          "internalType": "string",
          "name": "",
          "type": "string"
        }
      ],
      "stateMutability": "view",
      "type": "function"
    },
    {
      "inputs": [
        {
          "internalType": "uint256",
          "name": "betId",
          "type": "uint256"
        }
      ],
      "name": "viewBetSide1Name",
      "outputs": [
        {
          "internalType": "string",
          "name": "",
          "type": "string"
        }
      ],
      "stateMutability": "view",
      "type": "function"
    },
    {
      "inputs": [
        {
          "internalType": "uint256",
          "name": "betId",
          "type": "uint256"
        }
      ],
      "name": "viewBetSide2Name",
      "outputs": [
        {
          "internalType": "string",
          "name": "",
          "type": "string"
        }
      ],
      "stateMutability": "view",
      "type": "function"
    },
    {
      "inputs": [
        {
          "internalType": "uint256",
          "name": "betId",
          "type": "uint256"
        }
      ],
      "name": "viewBetOpeningDate",
      "outputs": [
        {
          "internalType": "uint256",
          "name": "",
          "type": "uint256"
        }
      ],
      "stateMutability": "view",
      "type": "function"
    },
    {
      "inputs": [
        {
          "internalType": "uint256",
          "name": "betId",
          "type": "uint256"
        }
      ],
      "name": "viewBetClosingDate",
      "outputs": [
        {
          "internalType": "uint256",
          "name": "",
          "type": "uint256"
        }
      ],
      "stateMutability": "view",
      "type": "function"
    },
    {
      "inputs": [
        {
          "internalType": "uint256",
          "name": "betId",
          "type": "uint256"
        }
      ],
      "name": "viewBetResult",
      "outputs": [
        {
          "internalType": "bool",
          "name": "",
          "type": "bool"
        }
      ],
      "stateMutability": "view",
      "type": "function"
    },
    {
      "inputs": [
        {
          "internalType": "uint256",
          "name": "betId",
          "type": "uint256"
        }
      ],
      "name": "viewCompletionStatus",
      "outputs": [
        {
          "internalType": "bool",
          "name": "",
          "type": "bool"
        }
      ],
      "stateMutability": "view",
      "type": "function"
    },
    {
      "inputs": [
        {
          "internalType": "uint256",
          "name": "betId",
          "type": "uint256"
        }
      ],
      "name": "viewCurrentOdds",
      "outputs": [
        {
          "internalType": "int128",
          "name": "",
          "type": "int128"
        }
      ],
      "stateMutability": "view",
      "type": "function"
    },
    {
      "inputs": [
        {
          "internalType": "address[]",
          "name": "arr",
          "type": "address[]"
        }
      ],
      "name": "createGroup",
      "outputs": [
        {
          "internalType": "uint256",
          "name": "",
          "type": "uint256"
        }
      ],
      "stateMutability": "nonpayable",
      "type": "function"
    },
    {
      "inputs": [
        {
          "internalType": "uint256",
          "name": "groupId",
          "type": "uint256"
        }
      ],
      "name": "viewGroup",
      "outputs": [
        {
          "internalType": "address[]",
          "name": "",
          "type": "address[]"
        }
      ],
      "stateMutability": "view",
      "type": "function"
    },
    {
      "inputs": [
        {
          "internalType": "uint256",
          "name": "betId",
          "type": "uint256"
        },
        {
          "internalType": "bool",
          "name": "result",
          "type": "bool"
        }
      ],
      "name": "executePayout",
      "outputs": [],
      "stateMutability": "nonpayable",
      "type": "function"
    },
    {
      "inputs": [
        {
          "internalType": "uint256",
          "name": "betId",
          "type": "uint256"
        }
      ],
      "name": "payout",
      "outputs": [],
      "stateMutability": "nonpayable",
      "type": "function"
    },
    {
      "inputs": [
        {
          "internalType": "uint256",
          "name": "betId",
          "type": "uint256"
        }
      ],
      "name": "changeResult",
      "outputs": [
        {
          "internalType": "bool",
          "name": "",
          "type": "bool"
        }
      ],
      "stateMutability": "nonpayable",
      "type": "function"
    },
    {
      "inputs": [],
      "name": "getCurrentTimestamp",
      "outputs": [
        {
          "internalType": "uint256",
          "name": "",
          "type": "uint256"
        }
      ],
      "stateMutability": "view",
      "type": "function"
    },
    {
      "inputs": [],
      "name": "checkGasPrice",
      "outputs": [
        {
          "internalType": "uint256",
          "name": "",
          "type": "uint256"
        }
      ],
      "stateMutability": "view",
      "type": "function"
    }
  ],
  "bytecode": "0x60806040526000600155600060035560405162002d1438038062002d148339818101604052810190620000339190620000e4565b826000806101000a81548160ff021916908360ff16021790555081600060016101000a81548160ff021916908360ff16021790555080600060026101000a81548160ff021916908360ff16021790555033600060036101000a81548173ffffffffffffffffffffffffffffffffffffffff021916908373ffffffffffffffffffffffffffffffffffffffff16021790555050505062000161565b600081519050620000de8162000147565b92915050565b600080600060608486031215620000fa57600080fd5b60006200010a86828701620000cd565b93505060206200011d86828701620000cd565b92505060406200013086828701620000cd565b9150509250925092565b600060ff82169050919050565b62000152816200013a565b81146200015e57600080fd5b50565b612ba380620001716000396000f3fe6080604052600436106101145760003560e01c8063928ab6ca116100a0578063b31a2e2611610064578063b31a2e2614610416578063bd5f148914610453578063d728f5b714610490578063df06f906146104bb578063e1152343146104e657610114565b8063928ab6ca146103065780639ed9c74d14610343578063a490f2951461035f578063a686fc001461039c578063a7c4f6b8146103d957610114565b80636c9230db116100e75780636c9230db1461020d5780637193ac121461023857806383324e8c1461026157806387c129da1461028c5780638912d114146102c957610114565b806335b58aa51461011957806339eb0df414610156578063436a1219146101935780636032c464146101d0575b600080fd5b34801561012557600080fd5b50610140600480360381019061013b91906120c2565b61050f565b60405161014d9190612599565b60405180910390f35b34801561016257600080fd5b5061017d600480360381019061017891906120c2565b610576565b60405161018a919061257e565b60405180910390f35b34801561019f57600080fd5b506101ba60048036038101906101b591906120c2565b6105a3565b6040516101c791906126f6565b60405180910390f35b3480156101dc57600080fd5b506101f760048036038101906101f291906120c2565b6105c3565b60405161020491906125b4565b60405180910390f35b34801561021957600080fd5b5061022261066b565b60405161022f91906126f6565b60405180910390f35b34801561024457600080fd5b5061025f600480360381019061025a91906120eb565b610673565b005b34801561026d57600080fd5b50610276610860565b60405161028391906126f6565b60405180910390f35b34801561029857600080fd5b506102b360048036038101906102ae91906120c2565b610866565b6040516102c091906125b4565b60405180910390f35b3480156102d557600080fd5b506102f060048036038101906102eb9190611fdc565b61090e565b6040516102fd91906126f6565b60405180910390f35b34801561031257600080fd5b5061032d600480360381019061032891906120c2565b610adf565b60405161033a91906125b4565b60405180910390f35b61035d600480360381019061035891906120eb565b610b87565b005b34801561036b57600080fd5b50610386600480360381019061038191906120c2565b6110bb565b604051610393919061255c565b60405180910390f35b3480156103a857600080fd5b506103c360048036038101906103be91906120c2565b611162565b6040516103d0919061257e565b60405180910390f35b3480156103e557600080fd5b5061040060048036038101906103fb91906120c2565b61118f565b60405161040d919061257e565b60405180910390f35b34801561042257600080fd5b5061043d600480360381019061043891906120c2565b6112fa565b60405161044a91906126f6565b60405180910390f35b34801561045f57600080fd5b5061047a60048036038101906104759190611f9b565b61131a565b60405161048791906126f6565b60405180910390f35b34801561049c57600080fd5b506104a561136c565b6040516104b291906126f6565b60405180910390f35b3480156104c757600080fd5b506104d0611374565b6040516104dd91906126f6565b60405180910390f35b3480156104f257600080fd5b5061050d600480360381019061050891906120c2565b61137a565b005b60008060026000848152602001908152602001600020600b015414156105385760009050610571565b61056e60026000848152602001908152602001600020600a015460026000858152602001908152602001600020600b0154611a7b565b90505b919050565b60006002600083815260200190815260200160002060090160009054906101000a900460ff169050919050565b600060026000838152602001908152602001600020600701549050919050565b60606002600083815260200190815260200160002060010180546105e6906129e0565b80601f0160208091040260200160405190810160405280929190818152602001828054610612906129e0565b801561065f5780601f106106345761010080835404028352916020019161065f565b820191906000526020600020905b81548152906001019060200180831161064257829003601f168201915b50505050509050919050565b600042905090565b600060039054906101000a900473ffffffffffffffffffffffffffffffffffffffff1673ffffffffffffffffffffffffffffffffffffffff163373ffffffffffffffffffffffffffffffffffffffff1614610703576040517f08c379a00000000000000000000000000000000000000000000000000000000081526004016106fa90612696565b60405180910390fd5b8160006002600083815260200190815260200160002060060154141561075e576040517f08c379a0000000000000000000000000000000000000000000000000000000008152600401610755906125f6565b60405180910390fd5b60026000848152602001908152602001600020600701544210156107b7576040517f08c379a00000000000000000000000000000000000000000000000000000000081526004016107ae906125d6565b60405180910390fd5b816002600085815260200190815260200160002060090160016101000a81548160ff02191690831515021790555062015180426107f491906127f3565b60026000858152602001908152602001600020600801819055507fd29af1cab046e5d53b7541cf330e78deb15d45f42f44712512586748e96b1106600260008581526020019081526020016000206008015460405161085391906126f6565b60405180910390a1505050565b60035481565b6060600260008381526020019081526020016000206000018054610889906129e0565b80601f01602080910402602001604051908101604052809291908181526020018280546108b5906129e0565b80156109025780601f106108d757610100808354040283529160200191610902565b820191906000526020600020905b8154815290600101906020018083116108e557829003601f168201915b50505050509050919050565b6000816000811461097457600060046000838152602001908152602001600020805490501415610973576040517f08c379a000000000000000000000000000000000000000000000000000000000815260040161096a90612676565b60405180910390fd5b5b60006001600081548092919061098990612a12565b91905055905060006002600083815260200190815260200160002090508a8160000190805190602001906109be929190611d31565b50898160010190805190602001906109d7929190611d31565b50888160020190805190602001906109f0929190611d31565b508781600301819055508681600601819055508581600701819055506000816008018190555084816005018190555060008160090160006101000a81548160ff02191690831515021790555060008160090160016101000a81548160ff021916908315150217905550338160040160006101000a81548173ffffffffffffffffffffffffffffffffffffffff021916908373ffffffffffffffffffffffffffffffffffffffff16021790555060008160040160146101000a81548160ff021916908360ff160217905550600081600a0181905550600081600b0181905550819350505050979650505050505050565b6060600260008381526020019081526020016000206002018054610b02906129e0565b80601f0160208091040260200160405190810160405280929190818152602001828054610b2e906129e0565b8015610b7b5780601f10610b5057610100808354040283529160200191610b7b565b820191906000526020600020905b815481529060010190602001808311610b5e57829003601f168201915b50505050509050919050565b81600060026000838152602001908152602001600020600601541415610be2576040517f08c379a0000000000000000000000000000000000000000000000000000000008152600401610bd9906125f6565b60405180910390fd5b60026000848152602001908152602001600020600501548333600080841415610c0e5760019050610d45565b600060046000868152602001908152602001600020805480602002602001604051908101604052809291908181526020018280548015610ca357602002820191906000526020600020905b8160009054906101000a900473ffffffffffffffffffffffffffffffffffffffff1673ffffffffffffffffffffffffffffffffffffffff1681526020019060010190808311610c59575b5050505050905060005b8151811015610d4257818181518110610cef577f4e487b7100000000000000000000000000000000000000000000000000000000600052603260045260246000fd5b602002602001015173ffffffffffffffffffffffffffffffffffffffff168473ffffffffffffffffffffffffffffffffffffffff161415610d2f57600192505b8080610d3a90612a12565b915050610cad565b50505b6001151581151514610d8c576040517f08c379a0000000000000000000000000000000000000000000000000000000008152600401610d8390612656565b60405180910390fd5b6002600088815260200190815260200160002060030154341015610de5576040517f08c379a0000000000000000000000000000000000000000000000000000000008152600401610ddc90612616565b60405180910390fd5b60026000888152602001908152602001600020600601544210158015610e21575060026000888152602001908152602001600020600701544211155b610e60576040517f08c379a0000000000000000000000000000000000000000000000000000000008152600401610e57906126b6565b60405180910390fd5b8515610f8e57600060026000898152602001908152602001600020600a015490503481610e8d91906127f3565b600260008a8152602001908152602001600020600a018190555060026000898152602001908152602001600020600c01339080600181540180825580915050600190039060005260206000200160009091909190916101000a81548173ffffffffffffffffffffffffffffffffffffffff021916908373ffffffffffffffffffffffffffffffffffffffff16021790555034600260008a8152602001908152602001600020600e0160003373ffffffffffffffffffffffffffffffffffffffff1673ffffffffffffffffffffffffffffffffffffffff1681526020019081526020016000206000828254610f8191906127f3565b92505081905550506110b2565b600060026000898152602001908152602001600020600b015490503481610fb591906127f3565b600260008a8152602001908152602001600020600b018190555060026000898152602001908152602001600020600d01339080600181540180825580915050600190039060005260206000200160009091909190916101000a81548173ffffffffffffffffffffffffffffffffffffffff021916908373ffffffffffffffffffffffffffffffffffffffff16021790555034600260008a8152602001908152602001600020600f0160003373ffffffffffffffffffffffffffffffffffffffff1673ffffffffffffffffffffffffffffffffffffffff16815260200190815260200160002060008282546110a991906127f3565b92505081905550505b50505050505050565b606060006004600084815260200190815260200160002080548060200260200160405190810160405280929190818152602001828054801561115257602002820191906000526020600020905b8160009054906101000a900473ffffffffffffffffffffffffffffffffffffffff1673ffffffffffffffffffffffffffffffffffffffff1681526020019060010190808311611108575b5050505050905080915050919050565b60006002600083815260200190815260200160002060090160019054906101000a900460ff169050919050565b60008060039054906101000a900473ffffffffffffffffffffffffffffffffffffffff1673ffffffffffffffffffffffffffffffffffffffff163373ffffffffffffffffffffffffffffffffffffffff1614611220576040517f08c379a000000000000000000000000000000000000000000000000000000000815260040161121790612696565b60405180910390fd5b8160006002600083815260200190815260200160002060060154141561127b576040517f08c379a0000000000000000000000000000000000000000000000000000000008152600401611272906125f6565b60405180910390fd5b6002600084815260200190815260200160002060090160019054906101000a900460ff16156002600085815260200190815260200160002060090160016101000a81548160ff0219169083151502179055506002600084815260200190815260200160002060090160019054906101000a900460ff1615915050919050565b600060026000838152602001908152602001600020600601549050919050565b60006003600081548092919061132f90612a12565b91905055506000600354905082600460008381526020019081526020016000209080519060200190611362929190611db7565b5080915050919050565b60003a905090565b60015481565b600060039054906101000a900473ffffffffffffffffffffffffffffffffffffffff1673ffffffffffffffffffffffffffffffffffffffff163373ffffffffffffffffffffffffffffffffffffffff161461140a576040517f08c379a000000000000000000000000000000000000000000000000000000000815260040161140190612696565b60405180910390fd5b600260008281526020019081526020016000206008015480421015611464576040517f08c379a000000000000000000000000000000000000000000000000000000000815260040161145b90612636565b60405180910390fd5b6000600260008481526020019081526020016000206007015414156114be576040517f08c379a00000000000000000000000000000000000000000000000000000000081526004016114b5906126d6565b60405180910390fd5b60606002600084815260200190815260200160002060090160019054906101000a900460ff161561158b5760026000848152602001908152602001600020600c0180548060200260200160405190810160405280929190818152602001828054801561157f57602002820191906000526020600020905b8160009054906101000a900473ffffffffffffffffffffffffffffffffffffffff1673ffffffffffffffffffffffffffffffffffffffff1681526020019060010190808311611535575b50505050509050611629565b60026000848152602001908152602001600020600d0180548060200260200160405190810160405280929190818152602001828054801561162157602002820191906000526020600020905b8160009054906101000a900473ffffffffffffffffffffffffffffffffffffffff1673ffffffffffffffffffffffffffffffffffffffff16815260200190600101908083116115d7575b505050505090505b600060026000858152602001908152602001600020600b015460026000868152602001908152602001600020600a015461166391906127f3565b905060006301c9c3803a611677919061287a565b905060006002845161168991906127f3565b82611694919061287a565b606484600060019054906101000a900460ff1660008054906101000a900460ff1660646116c19190612908565b6116cb9190612908565b60ff166116d8919061287a565b6116e29190612849565b6116ec91906128d4565b905060006002600088815260200190815260200160002060040160009054906101000a900473ffffffffffffffffffffffffffffffffffffffff169050600060648560008054906101000a900460ff1660ff16611749919061287a565b6117539190612849565b90508173ffffffffffffffffffffffffffffffffffffffff166108fc829081150290604051600060405180830381858888f1935050505015801561179b573d6000803e3d6000fd5b5060008060039054906101000a900473ffffffffffffffffffffffffffffffffffffffff1690508073ffffffffffffffffffffffffffffffffffffffff166108fc606488600060019054906101000a900460ff1660ff166117fc919061287a565b6118069190612849565b9081150290604051600060405180830381858888f19350505050158015611831573d6000803e3d6000fd5b5060005b8751811015611a14576000888281518110611879577f4e487b7100000000000000000000000000000000000000000000000000000000600052603260045260246000fd5b602002602001015190506000600260008d815260200190815260200160002060090160019054906101000a900460ff161561193557600260008d8152602001908152602001600020600a015487600260008f8152602001908152602001600020600e0160008573ffffffffffffffffffffffffffffffffffffffff1673ffffffffffffffffffffffffffffffffffffffff16815260200190815260200160002054611924919061287a565b61192e9190612849565b90506119b8565b600260008d8152602001908152602001600020600b015487600260008f8152602001908152602001600020600f0160008573ffffffffffffffffffffffffffffffffffffffff1673ffffffffffffffffffffffffffffffffffffffff168152602001908152602001600020546119ab919061287a565b6119b59190612849565b90505b8173ffffffffffffffffffffffffffffffffffffffff166108fc829081150290604051600060405180830381858888f193505050501580156119fe573d6000803e3d6000fd5b5050508080611a0c90612a12565b915050611835565b506001600260008b815260200190815260200160002060090160006101000a81548160ff0219169083151502179055507f56dfc206ce78ad5b5f119dede3cb3769e1d1684418d50dc9a13da107be0b58f260405160405180910390a1505050505050505050565b600080821415611a8a57600080fd5b6000611a968484611ae3565b90506f7fffffffffffffffffffffffffffffff6fffffffffffffffffffffffffffffffff16816fffffffffffffffffffffffffffffffff161115611ad957600080fd5b8091505092915050565b600080821415611af257600080fd5b600077ffffffffffffffffffffffffffffffffffffffffffffffff8411611b555782604085901b81611b4d577f4e487b7100000000000000000000000000000000000000000000000000000000600052601260045260246000fd5b049050611d0a565b600060c09050600060c086901c90506401000000008110611b7e57602081901c90506020820191505b620100008110611b9657601081901c90506010820191505b6101008110611bad57600881901c90506008820191505b60108110611bc357600481901c90506004820191505b60048110611bd957600281901c90506002820191505b60028110611be8576001820191505b600160bf830360018703901c018260ff0387901b81611c30577f4e487b7100000000000000000000000000000000000000000000000000000000600052601260045260246000fd5b0492506fffffffffffffffffffffffffffffffff831115611c5057600080fd5b6000608086901c8402905060006fffffffffffffffffffffffffffffffff871685029050600060c089901c9050600060408a901b905082811015611c95576001820391505b8281039050608084901b925082811015611cb0576001820391505b8281039050608084901c8214611cc7576001611cff565b888181611cfd577f4e487b7100000000000000000000000000000000000000000000000000000000600052601260045260246000fd5b045b870196505050505050505b6fffffffffffffffffffffffffffffffff811115611d2757600080fd5b8091505092915050565b828054611d3d906129e0565b90600052602060002090601f016020900481019282611d5f5760008555611da6565b82601f10611d7857805160ff1916838001178555611da6565b82800160010185558215611da6579182015b82811115611da5578251825591602001919060010190611d8a565b5b509050611db39190611e41565b5090565b828054828255906000526020600020908101928215611e30579160200282015b82811115611e2f5782518260006101000a81548173ffffffffffffffffffffffffffffffffffffffff021916908373ffffffffffffffffffffffffffffffffffffffff16021790555091602001919060010190611dd7565b5b509050611e3d9190611e41565b5090565b5b80821115611e5a576000816000905550600101611e42565b5090565b6000611e71611e6c84612742565b612711565b90508083825260208201905082856020860282011115611e9057600080fd5b60005b85811015611ec05781611ea68882611f08565b845260208401935060208301925050600181019050611e93565b5050509392505050565b6000611edd611ed88461276e565b612711565b905082815260208101848484011115611ef557600080fd5b611f0084828561299e565b509392505050565b600081359050611f1781612b28565b92915050565b600082601f830112611f2e57600080fd5b8135611f3e848260208601611e5e565b91505092915050565b600081359050611f5681612b3f565b92915050565b600082601f830112611f6d57600080fd5b8135611f7d848260208601611eca565b91505092915050565b600081359050611f9581612b56565b92915050565b600060208284031215611fad57600080fd5b600082013567ffffffffffffffff811115611fc757600080fd5b611fd384828501611f1d565b91505092915050565b600080600080600080600060e0888a031215611ff757600080fd5b600088013567ffffffffffffffff81111561201157600080fd5b61201d8a828b01611f5c565b975050602088013567ffffffffffffffff81111561203a57600080fd5b6120468a828b01611f5c565b965050604088013567ffffffffffffffff81111561206357600080fd5b61206f8a828b01611f5c565b95505060606120808a828b01611f86565b94505060806120918a828b01611f86565b93505060a06120a28a828b01611f86565b92505060c06120b38a828b01611f86565b91505092959891949750929550565b6000602082840312156120d457600080fd5b60006120e284828501611f86565b91505092915050565b600080604083850312156120fe57600080fd5b600061210c85828601611f86565b925050602061211d85828601611f47565b9150509250929050565b6000612133838361213f565b60208301905092915050565b6121488161293c565b82525050565b6000612159826127ae565b61216381856127d1565b935061216e8361279e565b8060005b8381101561219f5781516121868882612127565b9750612191836127c4565b925050600181019050612172565b5085935050505092915050565b6121b58161294e565b82525050565b6121c48161295a565b82525050565b60006121d5826127b9565b6121df81856127e2565b93506121ef8185602086016129ad565b6121f881612b17565b840191505092915050565b6000612210602e836127e2565b91507f5061796f75742063616e206f6e6c79206265206578656375746564206166746560008301527f7220636c6f73696e6720646174650000000000000000000000000000000000006020830152604082019050919050565b60006122766010836127e2565b91507f426574496420697320696e76616c6964000000000000000000000000000000006000830152602082019050919050565b60006122b66023836127e2565b91507f42657420616d6f756e74206973206c657373207468616e206d696e696d756d2060008301527f62657400000000000000000000000000000000000000000000000000000000006020830152604082019050919050565b600061231c6028836127e2565b91507f5061796f75742063616e206f6e6c792062652063616c6c65642061667465722060008301527f323420686f7572730000000000000000000000000000000000000000000000006020830152604082019050919050565b60006123826031836127e2565b91507f43616c6c6572206973206e6f7420617070726f76656420746f20706c6163652060008301527f62657420696e20746869732067726f75700000000000000000000000000000006020830152604082019050919050565b60006123e86012836127e2565b91507f47726f7570496420697320696e76616c696400000000000000000000000000006000830152602082019050919050565b60006124286027836127e2565b91507f4f6e6c7920616e2061646d696e2063616e20657865637574652074686973206660008301527f756e6374696f6e000000000000000000000000000000000000000000000000006020830152604082019050919050565b600061248e6023836127e2565b91507f426574206e6f7420706c616365642077697468696e2062657474696e6720646160008301527f74657300000000000000000000000000000000000000000000000000000000006020830152604082019050919050565b60006124f46034836127e2565b91507f41646d696e20686173206e6f742073657420726573756c74732c20736f20706160008301527f796f75742064617465206973206e6f74207365740000000000000000000000006020830152604082019050919050565b61255681612987565b82525050565b60006020820190508181036000830152612576818461214e565b905092915050565b600060208201905061259360008301846121ac565b92915050565b60006020820190506125ae60008301846121bb565b92915050565b600060208201905081810360008301526125ce81846121ca565b905092915050565b600060208201905081810360008301526125ef81612203565b9050919050565b6000602082019050818103600083015261260f81612269565b9050919050565b6000602082019050818103600083015261262f816122a9565b9050919050565b6000602082019050818103600083015261264f8161230f565b9050919050565b6000602082019050818103600083015261266f81612375565b9050919050565b6000602082019050818103600083015261268f816123db565b9050919050565b600060208201905081810360008301526126af8161241b565b9050919050565b600060208201905081810360008301526126cf81612481565b9050919050565b600060208201905081810360008301526126ef816124e7565b9050919050565b600060208201905061270b600083018461254d565b92915050565b6000604051905081810181811067ffffffffffffffff8211171561273857612737612ae8565b5b8060405250919050565b600067ffffffffffffffff82111561275d5761275c612ae8565b5b602082029050602081019050919050565b600067ffffffffffffffff82111561278957612788612ae8565b5b601f19601f8301169050602081019050919050565b6000819050602082019050919050565b600081519050919050565b600081519050919050565b6000602082019050919050565b600082825260208201905092915050565b600082825260208201905092915050565b60006127fe82612987565b915061280983612987565b9250827fffffffffffffffffffffffffffffffffffffffffffffffffffffffffffffffff0382111561283e5761283d612a5b565b5b828201905092915050565b600061285482612987565b915061285f83612987565b92508261286f5761286e612a8a565b5b828204905092915050565b600061288582612987565b915061289083612987565b9250817fffffffffffffffffffffffffffffffffffffffffffffffffffffffffffffffff04831182151516156128c9576128c8612a5b565b5b828202905092915050565b60006128df82612987565b91506128ea83612987565b9250828210156128fd576128fc612a5b565b5b828203905092915050565b600061291382612991565b915061291e83612991565b92508282101561293157612930612a5b565b5b828203905092915050565b600061294782612967565b9050919050565b60008115159050919050565b600081600f0b9050919050565b600073ffffffffffffffffffffffffffffffffffffffff82169050919050565b6000819050919050565b600060ff82169050919050565b82818337600083830152505050565b60005b838110156129cb5780820151818401526020810190506129b0565b838111156129da576000848401525b50505050565b600060028204905060018216806129f857607f821691505b60208210811415612a0c57612a0b612ab9565b5b50919050565b6000612a1d82612987565b91507fffffffffffffffffffffffffffffffffffffffffffffffffffffffffffffffff821415612a5057612a4f612a5b565b5b600182019050919050565b7f4e487b7100000000000000000000000000000000000000000000000000000000600052601160045260246000fd5b7f4e487b7100000000000000000000000000000000000000000000000000000000600052601260045260246000fd5b7f4e487b7100000000000000000000000000000000000000000000000000000000600052602260045260246000fd5b7f4e487b7100000000000000000000000000000000000000000000000000000000600052604160045260246000fd5b6000601f19601f8301169050919050565b612b318161293c565b8114612b3c57600080fd5b50565b612b488161294e565b8114612b5357600080fd5b50565b612b5f81612987565b8114612b6a57600080fd5b5056fea2646970667358221220f0baa199c1c163fdbd554423a828c0ccdb483c7d42fce0fb07c15e77c65da55964736f6c63430008000033",
  "immutableReferences": {},
  "source": "pragma solidity ^0.8.0;\nimport \"./ABDKMath64x64.sol\";\n\ncontract Beth {\n    uint8 commissionFeeBetCreator;\n    uint8 commissionFeeDev;\n    uint8 transactionFee;\n    address admin;\n\n    constructor(\n        uint8 betCreatorFee,\n        uint8 devFee,\n        uint8 txFee\n    ) public payable {\n        commissionFeeBetCreator = betCreatorFee;\n        commissionFeeDev = devFee;\n        transactionFee = txFee;\n        admin = msg.sender;\n    }\n\n    struct bet {\n        string betName;\n        string side1Description;\n        string side2Description;\n        uint256 minBet;\n        address betCreator;\n        uint8 currentParticipantsCount;\n        uint256 groupId;\n        uint256 openingDate;\n        uint256 closingDate;\n        uint256 payoutDate;\n        bool completed;\n        bool result;\n        uint256 stakeSide1Bet;\n        uint256 stakeSide2Bet;\n        address[] side1BetsAddress;\n        address[] side2BetsAddress;\n        mapping(address => uint256) side1Bets;\n        mapping(address => uint256) side2Bets;\n    }\n\n    uint256 public numBets = 0;\n    mapping(uint256 => bet) bets;\n    uint256 public numGroups = 0;\n    mapping(uint256 => address[]) groups;\n    uint256 constant DELAY = 1440 minutes; // 24 hours\n    uint256 constant averageGasLimit = 30000000;\n\n    event PayoutDelayed(uint256 executionTime);\n    event PayoutExecuted();\n\n    modifier adminOnly() {\n        require(msg.sender == admin, \"Only an admin can execute this function\");\n        _;\n    }\n\n    modifier approvedAddresses(\n        uint256 groupId,\n        uint256 betId,\n        address addr\n    ) {\n        bool check = false;\n\n        // check if bet group is public\n        if (groupId == 0) {\n            check = true;\n        } else {\n            // check if address is in approved list of addresses for private group\n            address[] memory arr = groups[groupId];\n            for (uint256 i = 0; i < arr.length; i++) {\n                if (addr == arr[i]) {\n                    check = true;\n                }\n            }\n        }\n\n        require(\n            check == true,\n            \"Caller is not approved to place bet in this group\"\n        );\n        _;\n    }\n\n    modifier onlyAfter(uint256 time) {\n        require(\n            block.timestamp >= time,\n            \"Payout can only be called after 24 hours\"\n        );\n        _;\n    }\n\n    modifier existingGroup(uint256 groupId) {\n        if (groupId != 0) {\n            require(groups[groupId].length != 0, \"GroupId is invalid\");\n        }\n        _;\n    }\n\n    modifier validBet(uint256 betId) {\n        require(bets[betId].openingDate != 0, \"BetId is invalid\");\n        _;\n    }\n\n    // Bet Functions\n    //function to create a new bet\n    function createBet(\n        string memory betName,\n        string memory side1Description,\n        string memory side2Description,\n        uint256 minBet,\n        uint256 openingDate,\n        uint256 closingDate,\n        uint256 groupId\n    ) public existingGroup(groupId) returns (uint256) {\n        //new bet object\n        uint256 newBetId = numBets++;\n        bet storage newBet = bets[newBetId];\n\n        //initialize relevant variables in new bet object\n        newBet.betName = betName;\n        newBet.side1Description = side1Description;\n        newBet.side2Description = side2Description;\n        newBet.minBet = minBet;\n        newBet.openingDate = openingDate;\n        newBet.closingDate = closingDate;\n        newBet.payoutDate = 0;\n        newBet.groupId = groupId;\n        newBet.completed = false;\n        newBet.result = false;\n        newBet.betCreator = msg.sender;\n        newBet.currentParticipantsCount = 0;\n        newBet.stakeSide1Bet = 0;\n        newBet.stakeSide2Bet = 0;\n\n        return newBetId;\n    }\n\n    //function to place bets\n    function placeBet(\n        uint256 betId,\n        bool betSide\n    )\n        public\n        payable\n        validBet(betId)\n        approvedAddresses(bets[betId].groupId, betId, msg.sender)\n    {\n        require(\n            msg.value >= bets[betId].minBet,\n            \"Bet amount is less than minimum bet\"\n        );\n        require(\n            block.timestamp >= bets[betId].openingDate &&\n                block.timestamp <= bets[betId].closingDate,\n            \"Bet not placed within betting dates\"\n        );\n\n        if (betSide) {\n            //update bet object and side 1 bet variables\n            uint256 curSide1Amt = bets[betId].stakeSide1Bet;\n            bets[betId].stakeSide1Bet = curSide1Amt + msg.value;\n            bets[betId].side1BetsAddress.push(msg.sender);\n            bets[betId].side1Bets[msg.sender] += msg.value;\n        } else {\n            //update bet object and side 2 bet variables\n            uint256 curSide2Amt = bets[betId].stakeSide2Bet;\n            bets[betId].stakeSide2Bet = curSide2Amt + msg.value;\n            bets[betId].side2BetsAddress.push(msg.sender);\n            bets[betId].side2Bets[msg.sender] += msg.value;\n        }\n    }\n\n    // function to view bet name\n    function viewBetName(uint256 betId) public view returns (string memory) {\n        return bets[betId].betName;\n    }\n\n    // function to view bet side 1 name\n    function viewBetSide1Name(\n        uint256 betId\n    ) public view returns (string memory) {\n        return bets[betId].side1Description;\n    }\n\n    // function to view bet side 2 name\n    function viewBetSide2Name(\n        uint256 betId\n    ) public view returns (string memory) {\n        return bets[betId].side2Description;\n    }\n\n    // function to view bet opening date\n    function viewBetOpeningDate(uint256 betId) public view returns (uint256) {\n        return bets[betId].openingDate;\n    }\n\n    // function to view bet closing date\n    function viewBetClosingDate(uint256 betId) public view returns (uint256) {\n        return bets[betId].closingDate;\n    }\n\n    // function to view bet result\n    function viewBetResult(uint256 betId) public view returns (bool) {\n        return bets[betId].result;\n    }\n\n    // function to view completion status\n    function viewCompletionStatus(uint256 betId) public view returns (bool) {\n        return bets[betId].completed;\n    }\n\n    // function to view the current odds\n    function viewCurrentOdds(uint256 betId) public view returns (int128) {\n        // For the case when the denominator is 0\n        if (bets[betId].stakeSide2Bet == 0) {\n            return 0;\n        }\n        return\n            ABDKMath64x64.divu(\n                bets[betId].stakeSide1Bet,\n                bets[betId].stakeSide2Bet\n            );\n    }\n\n    // Group Functions\n    //function to create a group for private bets\n    function createGroup(address[] memory arr) public returns (uint256) {\n        numGroups++;\n        uint256 newGroupId = numGroups;\n        groups[newGroupId] = arr;\n        return newGroupId;\n    }\n\n    //function to view group for private bets\n    function viewGroup(uint256 groupId) public view returns (address[] memory) {\n        address[] memory arr = groups[groupId];\n        return arr;\n    }\n\n    // Admin Functions\n    // wrapper function for admin to pay betters with 24 hours delay\n    function executePayout(\n        uint256 betId,\n        bool result\n    ) public adminOnly validBet(betId) {\n        require(\n            block.timestamp >= bets[betId].closingDate,\n            \"Payout can only be executed after closing date\"\n        );\n        bets[betId].result = result;\n        bets[betId].payoutDate = block.timestamp + DELAY;\n        emit PayoutDelayed(bets[betId].payoutDate);\n    }\n\n    // function to payout betters\n    function payout(\n        uint256 betId\n    ) public adminOnly onlyAfter(bets[betId].payoutDate) {\n        require(\n            bets[betId].closingDate != 0,\n            \"Admin has not set results, so payout date is not set\"\n        );\n        address[] memory winnerLs;\n\n        if (bets[betId].result) {\n            winnerLs = bets[betId].side1BetsAddress;\n        } else {\n            winnerLs = bets[betId].side2BetsAddress;\n        }\n\n        uint256 totalPrizePool = bets[betId].stakeSide1Bet +\n            bets[betId].stakeSide2Bet;\n        uint256 txfee = tx.gasprice * averageGasLimit;\n        uint256 payoutWinners = (((100 -\n            commissionFeeBetCreator -\n            commissionFeeDev) * totalPrizePool) / 100) -\n            txfee *\n            (winnerLs.length + 2);\n\n        //Pay bet initiator\n        address payable betCreator = payable(bets[betId].betCreator);\n        uint256 betCreatorPayment = (commissionFeeBetCreator * totalPrizePool) /\n            100;\n        betCreator.transfer(betCreatorPayment);\n\n        // Pay developers\n        address payable dev = payable(admin);\n        dev.transfer((commissionFeeDev * totalPrizePool) / 100);\n\n        // Iterate through winners list to pay each winner depending on their stake\n        for (uint i = 0; i < winnerLs.length; i++) {\n            address payable recipient = payable(winnerLs[i]);\n            uint256 payoutPerPerson = 0;\n\n            if (bets[betId].result) {\n                payoutPerPerson =\n                    (bets[betId].side1Bets[recipient] * payoutWinners) /\n                    bets[betId].stakeSide1Bet;\n            } else {\n                payoutPerPerson =\n                    (bets[betId].side2Bets[recipient] * payoutWinners) /\n                    bets[betId].stakeSide2Bet;\n            }\n\n            recipient.transfer(payoutPerPerson);\n        }\n\n        // Change payout and completion status\n        bets[betId].completed = true;\n        emit PayoutExecuted();\n    }\n\n    // function for admin to edit result of the bet\n    function changeResult(\n        uint256 betId\n    ) public adminOnly validBet(betId) returns (bool) {\n        bets[betId].result = !bets[betId].result;\n        return !bets[betId].result;\n    }\n\n    function getCurrentTimestamp() public view returns (uint256) {\n        return block.timestamp;\n    }\n\n    function checkGasPrice() public view returns (uint256) {\n        return tx.gasprice;\n    }\n}\n",
  "sourcePath": "/Users/tylerwang/code/4302-bETH/bETH/contracts/beth.sol",
  "compiler": {
    "name": "solc",
    "version": "0.8.0+commit.c7dfd78e.Emscripten.clang"
  },
  "schemaVersion": "3.4.16",
  "updatedAt": "2024-04-19T19:11:28.955Z",
  "devdoc": {
    "kind": "dev",
    "methods": {},
    "version": 1
  },
  "userdoc": {
    "kind": "user",
    "methods": {},
    "version": 1
  }
}